:020000020000FC
:0200000015C029
:0200120070C4B8
:02001A0083C49D
:02002000B3C467
:020024004AC4CC
:10002A0028C402E00EBF0FEF0DBF5FEF6FEFF1E0E4
:10003A00E0E002E030E01FEF31931A95E9F70A9504
:10004A00D1F700E600937C000CEC00937A0005E0FF
:10005A0004BD05BD01E000936E0001E000936F004E
:10006A0000E00093810001E00093700000E000933B
:10007A00B10008E307B900E2B1E0A3E50D9308B9BE
:10008A000EE00AB9302F06D4F999FECFF8940F93EF
:10009A0000E001BDF89A00B500934A010F917894E7
:1000AA0000914A010F3F69F401E010E0F999FECF8F
:1000BA00F8948F93812F81BD00BDFA9AF99A8F9196
:1000CA00789400934D01F999FECFF8940F9301E0CB
:1000DA0001BDF89A00B500934A010F9178940091F6
:1000EA004A010F3F69F403EE11E0F999FECFF89443
:1000FA008F93812F81BD00BDFA9AF99A8F917894D6
:10010A0000934E01F999FECFF8940F9302E001BDD6
:10011A00F89A00B500934A010F91789400914A0128
:10012A000F3F69F406EB12E0F999FECFF8948F932A
:10013A00812F81BD00BDFA9AF99A8F917894009324
:10014A004F0100E00093200100932201E0E0F1E07A
:10015A00C3E2D1E0789409EC00937A00A3E5B1E018
:10016A000D91459A08B95A980F93F89404EC0093A4
:10017A007A0078940FB70F931F932F93ABE1B2E0F5
:10018A0000E00D93009150010D93A7EBB1E02D9182
:10019A0010914E01011730F410914F01011738F0F8
:1001AA002C7F0AC0216004E00093810005C0226010
:1001BA0004E00093810000C02E932F911F910CEC54
:1001CA0000937A000F910FBF0F9100914C010130FB
:1001DA00B0F000914A0110914B01F999FECFF894C1
:1001EA008F93812F81BD00BDFA9AF99A8F917894E5
:1001FA00002700934A0100934B0100934C010091A0
:10020A002001002321F00CE000937A0001C0A3CF63
:10021A00029110914D01019301131EC30091210116
:10022A000023E1F7F894F1E0E0E000912001319138
:10023A000F931F93032F18E060275695679520F4B4
:10024A0000EA502701E060271A95B9F71F910F912C
:10025A000A9569F700E05013FFC25613FDC20091D8
:10026A0020010A950A9500932201F1E0E0E0D1E02D
:10027A00C3E231913993219142E00F930FB70F9363
:10028A001F933F935F936F93F894213079F0223054
:10029A0071F0233069F0243061F0253059F02630AE
:1002AA0059F02F3041F0203141F041F408D055D0B7
:1002BA00A2D0D5D008D194D13FD11AD251D2B1917E
:1002CA00A191B03079F4A03068F0A43058F40191CB
:1002DA00003049F40191013030F012E61A1B01177F
:1002EA0010F402C04BD258D2B0934501A0934601F4
:1002FA0000934901299310E03FEF1395083018F055
:10030A00085009F0D1F719934395312F009146010E
:10031A0010E01395083018F0085009F0D1F7B1E051
:10032A00A3E55D911A95E9F76D91003021F0669584
:10033A0057950A95E1F70E9100E01091490108944A
:10034A00001F1A95E1F7502359934395562F6D9143
:10035A003A95C9F7409343013BC2B191A191B0309C
:10036A0079F4A03068F0A43658F40191003049F4C9
:10037A000191013030F012E61A1B011710F402C085
:10038A00FDD10AD2B0934501A093460100934901D9
:10039A00299310E03FEF1395083018F0085009F040
:1003AA00D1F719934395312F0091460110E0139527
:1003BA00083018F0085009F0D1F7B1E0A7EB5D91C9
:1003CA001A95E9F76D91003021F0669557950A95CF
:1003DA00E1F70E9100E0109149010894001F1A9567
:1003EA00E1F7502359934395562F6D913A95C9F7E2
:1003FA0040934301EDC1B191A191B03079F4A0309D
:10040A0068F0A23358F411910191103041F401308F
:10041A0030F03A2F300F333310F402C0AFD1AED1DF
:10042A00B0934501A0934601009349012993000F17
:10043A000993009149014395B2E0AFE73091460133
:10044A00303021F01D911D913A95E1F71D911993D4
:10045A0043951D91199343950A95C1F7B9C1B19175
:10046A00A191B03079F4A03068F0A23358F4119118
:10047A000191103041F4013030F03A2F300F33330C
:10048A0010F402C07BD17AD1B0934501A093460102
:10049A00009349012993000F09930091490143955B
:1004AA00B2E0ABE130914601303081F21D911D91ED
:1004BA003A95E1F71D91199343951D911993439527
:1004CA000A95C1F785C1B191A191B03099F5A030D3
:1004DA0088F1A63078F511910191A53041F10030EB
:1004EA0051F5103019F01F3F09F025C02993B9932F
:1004FA004395A9934395199343950993439561E0CD
:10050A005A2F503019F0660F5A95E9F7B1E0A3E572
:10051A001F3F31F40D91062B0E934093430158C1AE
:10052A0060950D9106230E934093430151C11F3FDD
:10053A0011F477CD23D130D1B191A191B03039F4F2
:10054A00A03028F0A23318F41191019102C016D1FB
:10055A0023D12993B9934395A99343951993439525
:10056A00099343953A2FB2E0AFE7303029F03130A2
:10057A0081F03230E9F02BC0083F50F700934A016E
:10058A0050E050934B0151E050934C0100934D01C0
:10059A001EC050914F010517D8F200934A0151E04D
:1005AA0050934B0151E050934C0100934E010FC000
:1005BA0050914E01051760F600934A0152E050939C
:1005CA004B0151E050934C0100934F0100C0303071
:1005DA0021F05D915D913A95E1F71D930D93F8C075
:1005EA00B191A191B03049F5A03038F1A53028F584
:1005FA00B0934501A093460101910030F9F40093AC
:10060A00470101910130D0F016E01A1B0117B0F42E
:10061A0000934801119110934901103021F4139568
:10062A00109349010FC038E0319F301740F038501D
:10063A00301728F41093490105C0A0D0ADD0BAD024
:10064A00B1E0A3E50091460110914801709149017A
:10065A003FEF3191183050F55D91003079F05695A1
:10066A0067950A95E1F700914601660F331F0A95CF
:10067A00E1F700914601550F0A95E9F70091460105
:10068A00010F18E0101B012F330F0A95E9F7012F0C
:10069A0060E0550F661F0A95E1F7012F66953795B9
:1006AA000A95E1F7B1E0A3E53C9306C0B1E0A3E502
:1006BA006D9163236E9318501F91109149011A95F9
:1006CA00109349011F9321F629930091450109933B
:1006DA004395009146010993439500914701099377
:1006EA00439500914801099343954093430170C093
:1006FA00B191A191B030A1F4A03090F0A23380F46E
:10070A0011910191103069F4013058F03A2F300FED
:10071A00333338F43191502F500F531711F402C06C
:10072A002DD02CD0B0934501A093460130934901B6
:10073A002993B9934395A99343951993439509939B
:10074A004395B2E0AFE750914601550F503019F08A
:10075A006D915A95E9F761916D933A95E1F738C031
:10076A003F9330E8320F399331E0399330914301A6
:10077A0033953093430143953F912AC03F9330E824
:10078A00320F399332E039933091430133953093E4
:10079A00430143953F911CC03F9330E8320F399390
:1007AA0033E03993309143013395309343014395B4
:1007BA003F910EC03F9330E8320F399333E03993BB
:1007CA003091430133953093430143953F9100C0E3
:1007DA006F915F913F911F910F910FBF0F91789485
:1007EA005A9AD1E0C3E2409343016FEF5FEF009161
:1007FA00430139910F931F93032F18E060275695F1
:10080A00679520F400EA502701E060271A95B9F7A6
:10081A001F910F910F9345980091C00005FFFCCFDF
:10082A003093C6000F910A9521F7362F0F934598FA
:10083A000091C00005FFFCCF3093C6000F91352F01
:10084A000F9345980091C00005FFFCCF3093C60076
:10085A000F9107E00093B10000E00093220100939A
:10086A002001C3E2D1E0E0E0F1E06FEF5FEF7894BE
:10087A0072CC0F930FB70F93009179000093500138
:10088A0000E600937C000CED00937A000F910FBFF5
:10089A000F911895F89400E00093C50001E80093C1
:1008AA00C40008E90093C1000EE00093C200089555
:1008BA000F930FB70F933F934F93409120014F31FE
:1008CA0070F40091C00007FFF3CF0091C6000193B6
:1008DA0043954093200144E04093210100C04F9189
:1008EA003F910F910FBF0F9118954F934FB74F93A9
:1008FA005F9340914401442321F04A954093440177
:10090A0006C040E04093B10045E0409344015F9146
:10091A004F914FBF4F9118950F930FB70F9304EC58
:10092A0000937A001F932F9300E000938100A7EBB6
:10093A00B1E020E00091500110914F01011728F019
:10094A0010914E01011728F408C01D9111FD22E0F3
:10095A0004C01D9110FD21E000C0A3E5B1E00D9196
:10096A00220F220F220F077E022B0E932F911F9127
:10097A000CEC00937A000F910FBF0F9118954F93CB
:10098A004FB74F9340912101442319F04A95409360
:0A099A0021014F914FBF4F911895B6
:00000001FF
